:100000000C945C000C9479000C9479000C947900A9
:100010000C9479000C9479000C9479000C9479007C
:100020000C9479000C9479000C9479000C9479006C
:100030000C9479000C9479000C9479000C9479005C
:100040000C94EC000C9479000C9479000C947900D9
:100050000C9479000C9479000C9479000C9479003C
:100060000C9479000C947900000000080002010053
:100070000003040700000000000000000000000072
:10008000250028002B0000000000240027002A0083
:10009000040404040404040402020202020203032E
:1000A0000303030301020408102040800102040836
:1000B000102001020408102011241FBECFEFD8E049
:1000C000DEBFCDBF11E0A0E0B1E0E0EDF3E002C0A3
:1000D00005900D92A830B107D9F721E0A8E0B1E072
:1000E00001C01D92A131B207E1F70E9436010C94C4
:1000F000E6010C94000090E0FC01E859FF4F3491B8
:10010000FC01EC55FF4F2491FC01E057FF4FE491B7
:10011000EE2309F43BC0332339F1333091F038F446
:100120003130A9F0323001F584B58F7D12C03730FF
:1001300091F03830A1F03430B9F4809180008F7D97
:1001400003C0809180008F77809380000DC084B5BC
:100150008F7784BD09C08091B0008F7703C08091F4
:10016000B0008F7D8093B000F0E0EE0FFF1FE458E9
:10017000FF4FA591B4918FB7F894EC91611103C032
:1001800020952E2301C02E2B2C938FBF08953FB7AF
:10019000F89480910D0190910E01A0910F01B09102
:1001A000100126B5A89B05C02F3F19F00196A11D8F
:1001B000B11D3FBFBA2FA92F982F8827820F911DFD
:1001C000A11DB11DBC01CD0142E0660F771F881F44
:1001D000991F4A95D1F708951F920F920FB60F926B
:1001E00011242F933F938F939F93AF93BF9380914D
:1001F000090190910A01A0910B01B0910C0130917D
:10020000080123E0230F2D3720F40196A11DB11D15
:1002100005C026E8230F0296A11DB11D20930801F9
:100220008093090190930A01A0930B01B0930C01F4
:1002300080910D0190910E01A0910F01B0911001DC
:100240000196A11DB11D80930D0190930E01A09305
:100250000F01B0931001BF91AF919F918F913F918A
:100260002F910F900FBE0F901F901895789484B522
:10027000826084BD84B5816084BD85B5826085BDA2
:1002800085B5816085BD80916E00816080936E0030
:100290001092810080918100826080938100809122
:1002A00081008160809381008091800081608093D3
:1002B00080008091B10084608093B1008091B00093
:1002C00081608093B00080917A00846080937A008E
:1002D00080917A00826080937A0080917A008160B8
:1002E00080937A0080917A00806880937A001092DF
:1002F000C100A0E0B1E08D919D919927FC01EC55E2
:10030000FF4F2491FC01E057FF4F8491882399F01F
:1003100090E0880F991FFC01EA57FF4FC591D491D7
:10032000FC01E458FF4F859194918FB7F894E881D0
:10033000E22BE8838FBF21E0A830B207E1F61FE08F
:10034000C0E0D1E0E12CF12CC12ED12CC6010E2C45
:1003500002C0959587950A94E2F780FF02C061E09C
:1003600001C060E088810E947B008FEFE81AF80AE4
:10037000229624E0E216F10449F70E94C7004B01DF
:100380005C0188EEC82E83E0D82EE12CF12C0E946F
:10039000C700DC01CB0188199909AA09BB09883E6D
:1003A0009340A105B10558F081E0C81AD108E108D1
:1003B000F10828EE820E23E0921EA11CB11CC1148C
:1003C000D104E104F10419F71150BACFF894FFCF2A
:0803D0000A000B000C000D00F7
:00000001FF
