:100000000C9463000C948B000C948B000C945203A2
:100010000C9452030C9452030C948B000C948B00A0
:100020000C948B000C948B000C948B000C948B0024
:100030000C948B000C948B000C948B000C948B0014
:100040000C9408030C948B000C94D6020C94B00210
:100050000C948B000C948B000C948B000C948B00F4
:100060000C948B000C948B0000000008000201002F
:100070000003040700000000000000000000000072
:10008000250028002B0000000000240027002A0083
:1000900000000000230026002900040404040404D6
:1000A0000404020202020202030303030303010227
:1000B00004081020408001020408102001020408F6
:1000C0001020CC034A0511241FBECFEFD8E0DEBFBD
:1000D000CDBF11E0A0E0B1E0ECE4FBE002C0059090
:1000E0000D92A433B107D9F722E0A4E3B1E001C037
:1000F0001D92AD33B207E1F710E0C2E6D0E004C0D4
:100100002197FE010E948E05C136D107C9F70E94D2
:10011000AE040C9499050C940000CF92DF92EF92FC
:10012000FF920F931F93CF93DF936C017A018B01A2
:10013000C0E0D0E0CE15DF0589F0D8016D918D01CA
:10014000D601ED91FC910190F081E02DC601099559
:10015000892B11F47E0102C02196ECCFC701DF91FB
:10016000CF911F910F91FF90EF90DF90CF90089566
:10017000FC01538D448D252F30E0842F90E0821BAD
:10018000930B541710F0CF96089501970895FC0132
:10019000918D828D981761F0828DDF01A80FB11DBE
:1001A0005D968C91928D9F5F9F73928F90E00895E2
:1001B0008FEF9FEF0895FC01918D828D981731F09C
:1001C000828DE80FF11D858D90E008958FEF9FEFF0
:1001D0000895FC01918D228D892F90E0805C9F4FC6
:1001E000821B91098F739927089581E891E00E94FD
:1001F000E90021E0892B09F420E0822F0895FC0119
:10020000848DDF01A80FB11DA35ABF4F2C91848D9F
:1002100090E001968F739927848FA689B7892C93D4
:10022000A089B1898C9180648C93938D848D98136F
:1002300006C00288F389E02D80818F7D8083089538
:10024000EF92FF920F931F93CF93DF93EC0181E026
:10025000888F9B8D8C8D981305C0E889F9898081E2
:1002600085FD24C0F62E0B8D10E00F5F1F4F0F731E
:100270001127E02E8C8DE8120CC00FB607FCFACFC8
:10028000E889F989808185FFF5CFCE010E94FF00C2
:10029000F1CF8B8DFE01E80FF11DE35AFF4FF08285
:1002A0000B8FEA89FB898081806207C0EE89FF8914
:1002B0006083E889F98980818064808381E090E0AF
:1002C000DF91CF911F910F91FF90EF900895CF9301
:1002D000DF93EC01888D8823C9F0EA89FB8980814E
:1002E00085FD05C0A889B9898C9186FD0FC00FB620
:1002F00007FCF5CF808185FFF2CFA889B9898C9161
:1003000085FFEDCFCE010E94FF00E7CFDF91CF91B7
:10031000089580E090E0892B29F00E94F50081117A
:100320000C940000089590E0FC01E859FF4F3491CF
:10033000FC01E255FF4F2491FC01E656FF4FE4918A
:10034000EE2309F43BC0332339F1333091F038F414
:100350003130A9F0323001F584B58F7D12C03730CD
:1003600091F03830A1F03430B9F4809180008F7D65
:1003700003C0809180008F77809380000DC084B58A
:100380008F7784BD09C08091B0008F7703C08091C2
:10039000B0008F7D8093B000F0E0EE0FFF1FE458B7
:1003A000FF4FA591B4918FB7F894EC91611103C000
:1003B00020952E2301C02E2B2C938FBF08953FB77D
:1003C000F89480917D0190917E01A0917F01B09180
:1003D000800126B5A89B05C02F3F19F00196A11DED
:1003E000B11D3FBFBA2FA92F982F8827820F911DCB
:1003F000A11DB11DBC01CD0142E0660F771F881F12
:10040000991F4A95D1F7089520917601309177018F
:100410002817390771F4909175018091740198172C
:1004200041F0E0917501F0E0EC5CFE4F808190E0DE
:1004300008958FEF9FEF089508951F93CF93DF9353
:10044000DC015C962D913C915D972115310539F4C5
:1004500081E090E013969C938E9312973DC0519645
:10046000ED91FC91529750969C915097892F8095D1
:100470001FB75E964C915E9741FB772770F941FD5F
:100480006095F8944081772311F0492B01C04823EF
:100490004083E9012197F1F748E0508160FF02C0F5
:1004A000592B01C058235083E9012197F1F7669534
:1004B000415099F7772321F090818923808303C0ED
:1004C0008081982B90831FBF5C968D919C915D9746
:1004D0000197F1F721E030E0C901DF91CF911F9141
:1004E000089520917601309177012817390771F42A
:1004F000809174012091750190E0805C9F4F821B78
:10050000910960E470E00E946605089580E090E043
:100510000895209176013091770128173907B9F4B1
:100520009091750180917401981789F0E09175019F
:10053000F0E0EC5CFE4F80812091750130E02F5F90
:100540003F4F2F7333272093750190E008958FEF6D
:100550009FEF0895089580E090E008950E9494052B
:100560001F920F920FB60F9211242F933F934F9328
:100570005F936F937F938F939F93AF93BF93EF930B
:10058000FF9381E891E00E94FF00FF91EF91BF91FE
:10059000AF919F918F917F916F915F914F913F911B
:1005A0002F910F900FBE0F901F9018951F920F92D2
:1005B0000FB60F9211242F938F939F93EF93FF9376
:1005C000E0919101F09192018081E0919701F09189
:1005D000980182FD12C0908180919A018F5F8F7384
:1005E00020919B01821751F0E0919A01F0E0EF57C2
:1005F000FE4F958F80939A0101C08081FF91EF910A
:100600009F918F912F910F900FBE0F901F90189573
:100610001F920F920FB60F9211242F933F938F9337
:100620009F93AF93BF938091790190917A01A091AC
:100630007B01B0917C013091780123E0230F2D37AD
:1006400020F40196A11DB11D05C026E8230F0296D6
:10065000A11DB11D209378018093790190937A01B7
:10066000A0937B01B0937C0180917D0190917E01EC
:10067000A0917F01B09180010196A11DB11D8093D1
:100680007D0190937E01A0937F01B0938001BF9183
:10069000AF919F918F913F912F910F900FBE0F902F
:1006A0001F9018951F920F920FB60F9211242F933F
:1006B0003F934F935F936F937F938F939F93AF93EA
:1006C000BF93EF93FF93E0917601F091770130971C
:1006D00009F451C0968DA685B785858591FF04C024
:1006E0009C91892329F447C09C91892309F043C038
:1006F000A389B4899C918589809589238C93868967
:1007000097890197F1F7608D718DA685B78555851D
:1007100038E020E0CB010197F1F7822F90E095952A
:100720008795282F4C91452309F02068315091F787
:10073000868D81FD20958091740190E001968F73E4
:10074000992730917501381749F0A0917401B0E0F4
:10075000AC5CBE4F2C938093740103C0868D816086
:10076000868F828D938D0197F1F7A389B4899C912F
:100770008589892B8C93FF91EF91BF91AF919F91C8
:100780008F917F916F915F914F913F912F910F903A
:100790000FBE0F901F901895CF93DF931092840196
:1007A0001092830188EE93E0A0E0B0E08093850191
:1007B00090938601A0938701B093880124E031E0F3
:1007C000309382012093810125EC30E030938E013B
:1007D00020938D0124EC30E03093900120938F0121
:1007E00020EC30E0309392012093910121EC30E035
:1007F000309394012093930122EC30E030939601E2
:100800002093950126EC30E03093980120939701D6
:1008100010929A0110929B0110929C0110929D01DE
:1008200010922102109220028093220290932302C0
:10083000A0932402B093250286E191E090931F02D9
:1008400080931E02109235021092340210923702E9
:1008500010923602109239021092380210923B0226
:1008600010923A0260913C026E7F6D7F60933C0271
:100870006695617081E0682783E00E949301E1EB57
:10088000F0E02491EDE9F0E08491882399F090E084
:10089000880F991FFC01EA57FF4FA591B491FC0105
:1008A000E458FF4F859194918FB7F894EC91E22B27
:1008B000EC938FBFE1EBF0E0E491E0932E02EDE9E1
:1008C000F0E0E491F0E0EE0FFF1FE458FF4F859158
:1008D00094919093300280932F02E0EBF0E024910A
:1008E000ECE9F0E084918823C1F090E0880F991F33
:1008F000FC01EA57FF4FC591D491FC01E458FF4F2A
:10090000A591B4919FB7F8948881E22FE0958E234A
:1009100088838C91E823EC939FBF80913C0281FDFA
:1009200004C061E082E00E94930182E080932A0289
:10093000E0EBF0E0E491E0932B02ECE9F0E0E491ED
:10094000F0E0EE0FFF1FE057FF4F859194919093D9
:100950002D0280932C02DF91CF910895789484B575
:10096000826084BD84B5816084BD85B5826085BDAB
:1009700085B5816085BD80916E00816080936E0039
:10098000109281008091810082608093810080912B
:1009900081008160809381008091800081608093DC
:1009A00080008091B10084608093B1008091B0009C
:1009B00081608093B00080917A00846080937A0097
:1009C00080917A00826080937A0080917A008160C1
:1009D00080937A0080917A00806880937A001092E8
:1009E000C100E0919101F091920182E08083E09159
:1009F0008D01F0918E011082E0918F01F0919001B4
:100A00008FEC808310929901E0919501F09196010D
:100A100086E08083E0919301F09194018081806170
:100A20008083E0919301F0919401808188608083BC
:100A3000E0919301F0919401808180688083E0913E
:100A40009301F091940180818F7D80834BE050E091
:100A500064E271E081E891E00E948D0042E050E0A4
:100A600060E371E081E891E00E948D000E94DF0167
:100A70006B017C010E94DF01DC01CB018C199D0917
:100A8000AE09BF09883E9340A105B10598F30E94C5
:100A90008901DCCF86E191E090931F0280931E02D2
:100AA00080917601909177018E51924071F4E0919E
:100AB0003102F09132029081809133028095892336
:100AC00080831092770110927601089597FB072E8C
:100AD00016F4009407D077FD09D00E947A0507FC30
:100AE00005D03EF4909581959F4F0895709561953E
:100AF0007F4F0895AA1BBB1B51E107C0AA1FBB1F54
:100B0000A617B70710F0A61BB70B881F991F5A9599
:100B1000A9F780959095BC01CD010895EE0FFF1FB8
:100B20000590F491E02D099481E090E0F8940C9404
:100B3000990510E0C2E6D0E004C0FE010E948E05D7
:0C0B40002196C336D107C9F7F894FFCF07
:100B4C000000000020018D00B8006701E900C7001B
:100B5C00DB00000000001D028D00AB021C027102C4
:100B6C008902040248656C6C6F20576F726C6400CC
:040B7C000D0A00005E
:00000001FF
