:100000000C9461000C947E000C947E000C947E0095
:100010000C947E000C947E000C947E000C947E0068
:100020000C947E000C947E000C947E000C947E0058
:100030000C947E000C947E000C947E000C947E0048
:100040000C94A9010C947E000C947E000C947E000C
:100050000C947E000C947E000C947E000C947E0028
:100060000C947E000C947E0000000000230026000B
:10007000290000000008000201000003040700003E
:1000800000000000000000000000250028002B00F8
:1000900000000000240027002A00040404040404D3
:1000A0000404020202020202030303030303010227
:1000B00004081020408001020408102001020408F6
:1000C000102011241FBECFEFD8E0DEBFCDBF11E05E
:1000D000A0E0B1E0ECE1F5E002C005900D92A8309F
:1000E000B107D9F721E0A8E0B1E001C01D92A1312C
:1000F000B207E1F70E94F3010C948C020C9400000B
:10010000833081F028F4813099F08230A1F0089595
:100110008730A9F08830B9F08430D1F48091800024
:100120008F7D03C0809180008F7780938000089539
:1001300084B58F7702C084B58F7D84BD089580918A
:10014000B0008F7703C08091B0008F7D8093B000A6
:100150000895CF93DF93282F30E0F901EE58FF4F39
:100160008491F901E255FF4FD491F901E656FF4F12
:10017000C491CC2391F081110E948000EC2FF0E01B
:10018000EE0FFF1FE859FF4FA591B491EC91ED23BD
:1001900081E090E021F480E002C080E090E0DF9117
:1001A000CF9108951F93CF93DF93282F30E0F9016B
:1001B000EE58FF4F8491F901E255FF4FD491F901B8
:1001C000E656FF4FC491CC23C9F0162F81110E942F
:1001D0008000EC2FF0E0EE0FFF1FEA57FF4FA591D4
:1001E000B4918FB7F894111105C09C91ED2FE09553
:1001F000E92302C0EC91ED2BEC938FBFDF91CF91FF
:100200001F9108953FB7F89480910D0190910E01D0
:10021000A0910F01B091100126B5A89B05C02F3FFA
:1002200019F00196A11DB11D3FBFBA2FA92F982F1C
:100230008827820F911DA11DB11DBC01CD0142E097
:10024000660F771F881F991F4A95D1F708958F92DF
:100250009F92AF92BF92CF92DF92EF92FF920E9455
:1002600002014B015C0188ECC82ED12CE12CF12C51
:100270000E940201DC01CB0188199909AA09BB0976
:10028000883E9340A105B10558F021E0C21AD1087B
:10029000E108F10888EE880E83E0981EA11CB11CCD
:1002A000C114D104E104F10419F7FF90EF90DF903D
:1002B000CF90BF90AF909F908F900895EF92FF9254
:1002C0000F931F93CF93DF9300E011E0C0E0D0E0E5
:1002D000E82EF12CC7010C2E02C0959587950A9443
:1002E000E2F780FF02C061E001C060E0F8018081B8
:1002F0000E94D20021960E5F1F4FC430D10551F7E6
:10030000DF91CF911F910F91FF90EF900895CFE073
:1003100082E00E94A900892B11F40E9496018C2F83
:100320000E945E010E942701C150F2CFCF93C0E02E
:1003300082E00E94A900019711F40E9487018C2F8E
:100340000E945E010E942701CF5FC03189F7CF91E3
:1003500008951F920F920FB60F9211242F933F937F
:100360008F939F93AF93BF938091090190910A015E
:10037000A0910B01B0910C013091080123E0230FF3
:100380002D3720F40196A11DB11D05C026E8230FCD
:100390000296A11DB11D209308018093090190933D
:1003A0000A01A0930B01B0930C0180910D01909173
:1003B0000E01A0910F01B09110010196A11DB11D78
:1003C00080930D0190930E01A0930F01B093100143
:1003D000BF91AF919F918F913F912F910F900FBE41
:1003E0000F901F901895789484B5826084BD84B571
:1003F000816084BD85B5826085BD85B5816085BD20
:1004000080916E00816080936E00109281008091D7
:10041000810082608093810080918100816080935F
:100420008100809180008160809380008091B10084
:1004300084608093B1008091B00081608093B000AF
:1004400080917A00846080937A0080917A00826043
:1004500080937A0080917A00816080937A00809105
:100460007A00806880937A001092C100A0E0B1E029
:100470008D919D919927FC01E255FF4F2491FC013C
:10048000E656FF4F8491882399F090E0880F991FDA
:10049000FC01E057FF4FC591D491FC01EA57FF4F93
:1004A000859194918FB7F894E881E22BE8838FBF10
:1004B00081E0A830B807E1F6E0EBF0E02491ECE948
:1004C000F0E084918823C1F090E0880F991FFC012F
:1004D000E057FF4FC591D491FC01EA57FF4FA5911A
:1004E000B4919FB7F8948881E22FE0958E2388839A
:1004F0008C91E823EC939FBFC0E0D0E082E00E94A3
:10050000A900019711F40E9487010E94960120978B
:0C051000A9F30E940000F2CFF894FFCF86
:08051C000A000B000C000D00A9
:00000001FF
